:020000040800F2
:10000000A80600209D12000825020008270200080B
:100010002B0200082F020008330200080000000035
:10002000000000000000000000000000370200088F
:1000300039020008000000003B0200083D020008F1
:10004000B7120008B7120008B7120008B71200086C
:10005000B7120008B7120008B7120008B71200085C
:10006000B7120008B7120008B7120008B71200084C
:10007000B7120008B7120008B7120008B71200083C
:10008000B7120008B7120008B7120008B71200082C
:10009000B7120008B7120008B7120008B71200081C
:1000A000B7120008B7120008B7120008B71200080C
:1000B000B7120008B7120008B7120008B7120008FC
:1000C000B7120008B7120008B7120008B7120008EC
:1000D000B7120008B7120008B71200085B11000839
:1000E000B7120008B7120008B7120008B7120008CC
:1000F000B7120008B7120008B7120008B7120008BC
:10010000B7120008B7120008B7120008B7120008AB
:10011000B7120008B7120008B7120008B71200089B
:10012000B7120008B7120008B7120008B71200088B
:1001300000F002F800F03AF80AA090E8000C8244BF
:100140008344AAF10107DA4501D100F02FF8AFF29C
:10015000090EBAE80F0013F0010F18BFFB1A43F0A5
:1001600001031847AC440000CC440000103A24BFFF
:1001700078C878C1FAD8520724BF30C830C144BF0C
:1001800004680C607047000000230024002500264E
:10019000103A28BF78C1FBD8520728BF30C148BFEA
:1001A0000B6070471FB51FBD10B510BD02F0D6FF24
:1001B0001146FFF7F7FF00F009F802F0F4FF03B46F
:1001C000FFF7F2FF03BC00F03BFF000000F0CEFEA3
:1001D0004FF4A06001F082F84FF4165000F03FFF9A
:1001E00000F0C4FE00F01CF900F0D6FB40F2CF2175
:1001F00040F2CF7000F032FD00F0DEFD00F076F945
:100200000DE000F08AFB00F0A5FD00F046FE04487A
:100210000088401C024908800A2000F0E4FEF0E754
:1002200000000020704700BFFEE700BFFEE700BFF0
:10023000FEE700BFFEE77047704770477047000059
:100240000CB50020019000906C48006840F48030AC
:100250006A49086000BF6948006800F400300090F7
:100260000198401C0190009818B90198B0F5A06F52
:10027000F1D16248006800F4003010B10120009014
:1002800001E0002000900098012843D15C480068FC
:1002900040F010005A4908600846006820F003004A
:1002A00008600846006840F0020008605348406853
:1002B000524948600846406848600846406840F433
:1002C000806048600846406820F47C10486008461A
:1002D000406840F4E81048600846006840F08070CC
:1002E000086000BF4548006800F000700028F9D0A1
:1002F0004248406820F00300404948600846406892
:1003000040F00200486000BF3C48406800F00C002C
:100310000828F9D10CBD10B5FFF792FF10BD10B53C
:100320003648006840F001003449086008464068DB
:10033000344908403149486008460068324908405D
:100340002E4908600846006820F4802008600846AE
:10035000406820F4FE0048604FF41F008860FFF7FB
:10036000DAFF4FF000602949086010BD10B5002188
:1003700000200022214B5B6803F00C0121B104290D
:1003800006D0082928D107E0214B224C236027E022
:100390001F4B204C236023E0184B5B6803F4701064
:1003A000164B5B6803F48032022303EB904022B9C2
:1003B000194B4343174C23600DE0104B5B6803F46B
:1003C000003323B1144B4343124C236003E0104B22
:1003D0004343104C236003E00D4B0E4C236000BFE1
:1003E00000BF064B5B68C3F303130C4CE15C094B85
:1003F0001B68CB40074C236010BD0000001002407A
:10040000002002400000FFF8FFFFF6FE08ED00E0CC
:1004100000127A000400002000093D0008000020BE
:1004200008B50121142001F0E3FA8020ADF80000A6
:1004300010208DF8030003208DF8020069460D4856
:1004400001F01AF880210B4801F0C3F84FF4E05096
:10045000ADF8000010208DF8030003208DF8020095
:100460006946054801F008F84FF4E051024801F0F0
:10047000B0F808BD001001400008014070B5054605
:100480000C4600F0A2FA3A2000F063FB00F0E2FA1A
:10049000284600F05EFB00F0DDFA204600F059FB34
:1004A00000F0D8FA00F0B3FA70BD70B5044600252C
:1004B00000F08BFA3A2000F04CFB00F0CBFA054636
:1004C000204600F046FB00F0C5FA054600F07DFA34
:1004D0003B2000F03EFB00F0BDFA0546002000F096
:1004E0006EFB054600F093FA284670BD10B500205B
:1004F000FFF7DBFFE5281DD12B213120FFF7BEFFE1
:1005000008212C20FFF7BAFF28212D20FFF7B6FF86
:1005100000212E20FFF7B2FF00211E20FFF7AEFFC3
:1005200000211F20FFF7AAFF00212020FFF7A6FFD0
:10053000002010BD0120FCE72DE9FC4105460E46D8
:10054000174600F042FA3A2000F003FB00F082FA6E
:10055000322000F0FEFA00F07DFA00F036FA3B207F
:1005600000F0F7FA00F076FA00240EE0052C05D131
:10057000002000F024FB0DF8040004E0012000F04E
:100580001EFB0DF80400601CC4B2062CEEDB00F06C
:100590003EFA9DF800009DF8011000EB012000B22A
:1005A00028809DF802009DF8031000EB012000B2A6
:1005B00030809DF804009DF8051000EB012000B28A
:1005C0003880BDE8FC812DE9F04704460D4616460B
:1005D0000027B846B946BA4616E0324629462046B4
:1005E000FFF7AAFF0A2000F0FEFC2088384407B27B
:1005F000288840440FFA80F8308848440FFA80F980
:100600000AF1010000F0FF0ABAF10A0FE5DB0A2047
:1006100097FBF0F000B220800A2098FBF0F000B2C7
:1006200028800A2099FBF0F000B23080BDE8F08706
:100630002DE9FE4F04460D4616460027B846B9463A
:1006400000212D20FFF71AFF642000F0CCFC2B21A5
:100650003120FFF713FF0A212C20FFF70FFF28217D
:100660002D20FFF70BFF00212E20FFF707FF0021B1
:100670001E20FFF703FF00211F20FFF7FFFE0021D0
:100680002020FFF7FBFE0C2000F0ADFCBA4616E080
:100690006A4601A902A8FFF796FFBDF80800384492
:1006A00007B2BDF8040040440FFA80F8BDF800001E
:1006B00048440FFA80F90AF1010000F0FF0ABAF18C
:1006C0000A0FE5DB0A2097FBF0F007B20A2098FB3F
:1006D000F0F00FFA80F80A2099FBF0F00FFA80F999
:1006E0007842C11700EB9171C1F387012170C8F105
:1006F0000000C11700EB9171C1F387012970C9F5A2
:100700008070C11700EB9171C1F3870131702178BE
:100710001E20FFF7B3FE29781F20FFF7AFFE3178C8
:100720002020FFF7ABFEBDE8FE8F2DE9FE43044617
:100730000D4616461F4600202080288030809FB33B
:1007400080461DE06A4601A902A8FFF7F5FE208851
:10075000BDF80810084400B220802888BDF80410B5
:10076000084400B228803088BDF80010084400B268
:100770003080052000F037FC08F1010000F0FF0890
:10078000B845DFDBB4F9000090FBF7F000B2208041
:10079000B5F9000090FBF7F000B22880B6F9000030
:1007A00090FBF7F000B23080BDE8FE832DE9F04FFA
:1007B00089B00646894615469A4600200890BAF147
:1007C000000F06D0BAF1010F32D0BAF1020F2ED1CC
:1007D0005EE0284603F05AFCCDE90601494648464A
:1007E00003F00EFD31460190304603F009FD009004
:1007F000019903F077FC834603F048FCCDE9020140
:1008000002F05CFECDE90401DDE9062302F06AFF97
:10081000074602F079FE0446204603F037FCCDE996
:10082000060102F03BFD074602F06EFE08905FE015
:100830002946284603F0E4FC49460190484603F067
:10084000DFFC0090019903F04DFC834603F01EFC91
:10085000CDE9020102F032FE07468846304603F039
:1008600015FC3A464346CDE9040102F03BFFCDE9D1
:10087000060102F049FE0446204603F007FCCDE9DC
:10088000060102F00BFD074602F03EFE08902FE045
:100890002946284603F0B4FC31460190304603F067
:1008A000AFFC0090019903F01DFC834603F0EEFBC2
:1008B000CDE9020102F002FE07468846484603F0F1
:1008C000E5FB3A464346CDE9040102F00BFFCDE9D2
:1008D000060102F019FE0446204603F0D7FBCDE9DD
:1008E000060102F0DBFC074602F00EFE089000BF96
:1008F00000BF2349089803F083FC834603F0C6FB3E
:100900000746204A204B02F0EDFECDE9060103F038
:1009100041F800B209B0BDE8F08FFEB51B48008871
:100920000A2190FBF1F201FB120040BB0A236A4648
:1009300001A902A8FFF7F9FEBDF9000003F034FC9D
:100940000446BDF9040003F02FFC0546BDF908007C
:1009500003F02AFC0646002322462946FFF726FF1D
:100960000B4908800846B0F90000002803DB01208D
:100970000849086002E000200649086000BFFEBD8B
:100980000000E1441F85EB51B81E09400000002023
:10099000180000209C01224208B50121082001F026
:1009A00027F84FF47040ADF8000010208DF80300D8
:1009B00003208DF8020069469F4800F05DFD4FF46A
:1009C00070419D4800F005FE08BD10B59A48001D15
:1009D000006820F070409849091D086008460068CA
:1009E00040F0405008600120944908609449C1F8E3
:1009F000B401042000F0D3FA0020904908600420DC
:100A000000F0CDFA00208E49C1F8B40110BD10B538
:100A10008948001D006820F070408749091D086062
:100A20000846006840F040500860002083490839BB
:100A300008608349C1F8BC01042000F0B0FA01202D
:100A40007E49083908607E49C1F8BC01042000F0E5
:100A5000A6FA10BD10B500247748001D006820F0EC
:100A600070407549091D08600846006840F0004064
:100A7000086071480C30006840F400406E490C3149
:100A8000086001206D49086000F089FA01206C4976
:100A9000C1F8B40100F083FA07E0601CC4B2FA2C7C
:100AA00003DDFFF7B4FF012010BD64488038006803
:100AB0000028F2D161490839086000BFF4E710B599
:100AC00000205E49083908605B48001D006820F07E
:100AD00070405949091D08600846006840F04050C0
:100AE000086000205649C1F8BC01022000F057FA06
:100AF0000120524908390860022000F050FA002015
:100B00004F49C1F8B40110BD10B500204B49083958
:100B100008604948001D006820F070404649091DE2
:100B200008600846006840F04050086001204449D1
:100B3000C1F8BC01022000F032FA01203F49083917
:100B40000860022000F02BFA00203D49C1F8B401F2
:100B500010BD70B504463848001D006820F0704094
:100B60003549091D08600846006840F0405008609B
:100B7000002032490839086000251DE0E00918B15D
:100B800001202E49086002E000202C490860600620
:100B9000040E022000F003FA0120284908390860F9
:100BA000022000F0FCF900202549C1F8B401022020
:100BB00000F0F5F9681CC5B2082DDFDB70BD70B51B
:100BC000054600241C48001D006820F070401A49AA
:100BD000091D08600846006840F00040086016489B
:100BE0000C30006840F4004013490C3108600026C6
:100BF00017E00020114908390860022000F0CFF901
:100C000001200F49C1F8B4016006040E0B4880387A
:100C1000006808B1601CC4B2012000F0C0F9701C6B
:100C2000C6B2082EE5DB15B9FFF76EFF01E0FFF74E
:100C300046FF204670BD0000000C0140BC812142EF
:100C40000080214270B504460D462146554801F00A
:100C5000FFFF2946534801F0FDFF70BD30B589B054
:100C600005460C460121042000F0C2FE01210220AD
:100C700000F0CBFEC020ADF8200018208DF8230036
:100C800003208DF8220008A9474800F0F5FBC02199
:100C9000454800F09EFCADF81850ADF81440002017
:100CA000ADF81A00ADF8160005A93E4801F0DCF9D0
:100CB0006020ADF804000120ADF806006420ADF816
:100CC0000A000020ADF80C0001A9364801F009FA2D
:100CD0000821344801F054FE01A9324801F043FADA
:100CE0000821304801F055FE01212E4801F018FE80
:100CF00001212C4801F014FD64210846FFF7A2FFF2
:100D000009B030BD10B5C8210846FFF79BFF4FF46E
:100D10007A7000F068F94FF47A7000F064F9642199
:100D20000846FFF78FFF4FF47A7000F05CF94FF43C
:100D30007A7000F058F910BD10B5044621461948E4
:100D400001F086FF10BD10B504462146154801F09C
:100D500081FF10BD70B515480088401C13490880FC
:100D600008460088C82806DD00201149088011497E
:100D700008800E4908800E48008864214843FF21FE
:100D800090FBF1F000F164040A48008864214843B4
:100D9000FF2190FBF1F000F16405E9B2E0B2FFF74A
:100DA00051FF70BD00040040000801402E000020EB
:100DB0002A0000202C00002000B587B001214FF44C
:100DC000047000F015FE4FF4004000F075FD202087
:100DD000ADF8040000208DF8070001A9594800F083
:100DE0004BFB594801F07AFF002002908DF80C006F
:100DF0008DF80D004FF46020049000200590012034
:100E00008DF8180002A9504801F08FFF01214E48CB
:100E100001F0B7FF4C4801F0D6FF00BF4A4801F08F
:100E2000D7FF0028FAD1484801F0DCFF00BF464850
:100E300001F0DDFF0028FAD107B000BD10B504466F
:100E4000072301222146404802F007F801213E48CD
:100E500001F0D7FF00BF02213B4802F043F9002810
:100E6000F9D0394802F060F810BD2DE9F041804614
:100E70000C460025002608E04046FFF7DFFF05444A
:100E8000052000F0B0F8701CC6B2A642F4DBB5FB3A
:100E9000F4F087B23846BDE8F0812DE9F0472B48E1
:100EA0000088642190FBF1F201FB1200002846D17A
:100EB00005210F20FFF7D9FF8146484603F08CF942
:100EC000824603F0E3F807464FF06632204B02F00B
:100ED000CDFD054602F018FB0446204603F0D6F887
:100EE00005461C4A1C4B02F0BFFE09D201201B49DB
:100EF00008601B49C1F8AC011849083108601DE0C1
:100F0000204603F0C3F80546164A174B02F0ACFE24
:100F10000AD200201149086001201149C1F8AC0132
:100F20000E490831086009E000200C4908600C49AE
:100F3000C1F8AC01012009490831086000BFBDE8D3
:100F4000F087000000100140002401400000002054
:100F500066664A3FB4C876BE9F1A0340A801214284
:100F600000002142C1CAA145B6F3014010B56FF09F
:100F7000040000F002FA2E4800682E49B0FBF1F0A0
:100F80002D4908700846007800EB4001C1EBC01005
:100F90004FF6FF7101EAC0002849088010BD0146E4
:100FA000254A12784A434FF0E0235A6100229A61A1
:100FB0001A46126942F001021A6100BF4FF0E022A6
:100FC000106900F001021AB100F48032002AF5D055
:100FD0004FF0E022126922F001024FF0E0231A6183
:100FE00000229A6170470146144A12884A434FF022
:100FF000E0235A6100229A611A46126942F0010206
:101000001A6100BF4FF0E022106900F001021AB12E
:1010100000F48032002AF5D04FF0E022126922F06D
:1010200001024FF0E0231A6100229A61704700002C
:101030000400002000127A001A0000201C0000208A
:10104000014600BF704700BF854A128802F0400287
:10105000002AF9D0C2B2824B1B1D1A80704710B50E
:1010600086B004460121042000F0C2FC0320ADF844
:10107000140010208DF8170003208DF8160005A924
:10108000784800F0F9F90321764800F0A4FA01212C
:10109000082000F0ADFC0121880400F0B6FC4FF4FC
:1010A0008060ADF8140003208DF8160018208DF82C
:1010B000170005A96C4800F0DFF94FF40060ADF8A7
:1010C000140004208DF8170005A9674800F0D4F932
:1010D00001940020ADF80800ADF80A00ADF80C004E
:1010E000ADF810000C20ADF80E0027208DF80000A0
:1010F00003208DF801008DF8020001208DF8030017
:10110000684600F0F0F801A9554800F018FD0122EA
:1011100040F22551524800F0AAFD0121504800F04C
:101120009AFD06B010BD10B5044621464C4800F0AB
:10113000FFFD00BF80214A4800F068FE0028F9D07A
:1011400010BD70B505460E46002403E0285DFFF78C
:10115000EAFF641CB442F9D370BD10B54021404889
:1011600000F061FE40F225513D4800F065FE002888
:101170004CD03B4800F0E0FDC4B2522C03D101201A
:101180003A49088011E03948008801280DDB3748CA
:101190000088042809DC35480088401E34490C5476
:1011A00032480088401C31490880304800880528B2
:1011B0002CD12F4800782E498978884226D12C4896
:1011C00040782B49C978884220D12A48B0F90000DC
:1011D000002808DB26480078274908802448407802
:1011E0002649088007E022484078234908802048A3
:1011F00000782249088000202149088021480068A1
:1012000008B9012000E000201E49086010BD1E4AF8
:1012100010601E4AC2F8841170470EB51CA103C9A4
:10122000CDE901011CA00068009001210846FFF7EC
:10123000EEFF4FF47A70FFF7D6FE062101A8FFF704
:1012400080FF4FF4FA60FFF7CEFE03216846FFF7F8
:1012500078FF03E04FF4FA60FFF7C5FEFAE70000FD
:101260000048004000080140000C0140240000201C
:1012700026000020180000202A0000202C0000205A
:101280002E0000209C0122428001214200002142C8
:10129000C000001C0A470000C1C1C10009488047C6
:1012A00009480047FEE7FEE7FEE7FEE7FEE7FEE748
:1012B000FEE7FEE7FEE7FEE704480549054A064B60
:1012C000704700001F03000831010008A80000203B
:1012D000A8060020A8020020A802002031490143EE
:1012E000314A1160704770B5002100230F22C47885
:1012F00004B32D4C246804F4E064C4F5E064210ACE
:10130000C1F10403CA40447804FA03F1847814401C
:1013100021430901254C0678A155047804F01F05E6
:101320000124AC4005786D11AD0005F1E025C5F84C
:10133000004109E0047804F01F050124AC401C4D75
:101340000678761145F8264070BD1A4A0A400243D5
:10135000154B1B1F1A60704739B1134A121D1268D2
:101360000243114B1B1D1A6006E00F4A121D126842
:1013700082430D4B1B1D1A607047042808D14FF0A3
:10138000E021096941F004014FF0E022116107E01A
:101390004FF0E021096921F004014FF0E0221161D2
:1013A000704700000000FA050CED00E000E400E0EA
:1013B00080E100E080FFFF1F10B50446CC48844266
:1013C00008D10121042000F02DFB0021042000F0B1
:1013D00029FB46E0C748844208D10121082000F0DB
:1013E00021FB0021082000F01DFB3AE0C2488442A6
:1013F00008D10121102000F015FB0021102000F081
:1014000011FB2EE0BD48844208D10121202000F0CC
:1014100009FB0021202000F005FB22E0B8488442AF
:1014200008D10121402000F0FDFA0021402000F009
:10143000F9FA16E0B348844208D10121802000F077
:10144000F1FA0021802000F0EDFA0AE0AE48844273
:1014500007D10121801500F0E5FA0021A01500F068
:10146000E1FA10BD10B50121084600F0DBFA0021B9
:10147000012000F0D7FA10BD2DE9F0410246002509
:101480000026002000230024002791F803C00CF060
:101490000F0591F803C00CF0100CBCF1000F03D045
:1014A00091F802C04CEA050591F800C0BCF1000FAC
:1014B00031D0146800202BE04FF0010C0CFA00F33F
:1014C000B1F800C00CEA03069E4220D183004FF021
:1014D0000F0C0CFA03F7BC4305FA03FC4CEA0404B6
:1014E00091F803C0BCF1280F06D14FF0010C0CFAA3
:1014F00000FCC2F814C00AE091F803C0BCF1480F28
:1015000005D14FF0010C0CFA00FCC2F810C0401CD1
:101510000828D1D31460B1F800C0BCF1FF0F34DD4E
:10152000546800202EE000F1080C4FF0010808FA82
:101530000CF3B1F800C00CEA03069E4221D18300EF
:101540004FF00F0C0CFA03F7BC4305FA03FC4CEA0E
:10155000040491F803C0BCF1280F05D100F1080C78
:1015600008FA0CF8C2F8148091F803C0BCF1480FD7
:1015700007D100F1080C4FF0010808FA0CF8C2F886
:101580001080401C0828CED35460BDE8F0814FF68F
:10159000FF710180022181700421C17070470246F1
:1015A000002093680B400BB1012000E00020704741
:1015B0000146886880B2704702460020D3680B401D
:1015C0000BB1012000E0002070470146C86880B2DE
:1015D000704701617047416170470AB1016100E0E5
:1015E00041617047C16070474FF480320A438261A5
:1015F0008161826182698269704702460020434BA3
:1016000018684FF68073184040EA021008433F4BB9
:10161000186070473E49C8617047F0B50A4600231C
:1016200000240021002500F00046B6F1004F02D151
:10163000364EF16901E0354E7168C0F3034583B25F
:1016400000F44016B6F5401F08D121F070612F4E0E
:10165000766826F070662D4F7E6012E000F48016EA
:10166000B6F5801F06D1032606FA05F4A14341F022
:10167000706106E0460D360103FA06F6B14341F00B
:10168000706122B1460D360103FA06F6314300F0CF
:101690000046B6F1004F02D11C4EF16101E01B4E35
:1016A0007160F0BD30B500228B071C0F0F2303FAC9
:1016B00004F2164B08338C1053F824309343134C28
:1016C00008348D1044F8253023468C1053F824300C
:1016D0008C07240F00FA04F423430C4C08348D10BB
:1016E00044F8253030BD0A49DC31086070470000FD
:1016F00000080140000C01400010014000140140AE
:1017000000180140001C0140002001400000014081
:1017100000002042DF48006840F00100DD49086019
:1017200008464068DC490840DA49486008460068D5
:10173000DA490840D74908600846006820F480204C
:1017400008600846406820F4FE0048604FF41F001F
:1017500088607047CF49096821F48031CD4A116013
:101760001146096821F480211160B0F5803F03D053
:10177000B0F5802F0ED106E0C649096841F48031EA
:10178000C44A116007E0C349096841F4A021C14A75
:10179000116000E000BF00BF704710B50146002295
:1017A000002300204A11012A02D1BA4C236806E026
:1017B000022A02D1B74C236A01E0B64C636A01F0F9
:1017C0001F02012494401C400CB1012000E00020C5
:1017D00010BD38B5002000900024002500BF312046
:1017E000FFF7DBFF05460098401C00900098B0F51D
:1017F000A06F01D0002DF2D03120FFF7CEFF08B14D
:10180000012400E00024204638BD01460020A14A02
:10181000106820F0F80040EAC10010607047A0494D
:1018200008607047024600209A4B586820F47C10EC
:1018300042EA01031843974B58607047984908667D
:10184000704701460020934A506820F00300084387
:10185000506070478F48406800F00C0070470146A8
:1018600000208C4A506820F0F00008435060704718
:1018700001460020874A506820F4E0600843506029
:10188000704701460020834A506820F4605040EAC7
:10189000C1005060704729B17E4A527A02437D4BA5
:1018A0005A7204E07B4A527A82437A4B5A727047EA
:1018B0007B49D8310860704701460020754A50685E
:1018C00020F440400843506070470021714A2032A4
:1018D0001170704A82F82010012802D004280AD121
:1018E00004E001216B4A2032117005E00521694AAC
:1018F0002032117000E000BF00BF704769490860E6
:1019000070476449096A0143624A11627047654938
:1019100044390860704730B50021002200240023BC
:101920005C4D6D6805F00C0121B1042905D0082932
:1019300023D105E05C4D056022E05B4D05601FE0B2
:10194000544D6D6805F47012524D6D6805F4803485
:10195000022505EB92421CB9544D554305600BE03E
:101960004C4D6D6805F400351DB1504D5543056073
:1019700002E04D4D5543056002E04B4D056000BF50
:1019800000BF444D6D6805F0F0010909484D6B5CDE
:101990000568DD4045603F4D6D6805F4E061090A6A
:1019A000434D6B5C4568DD4085603A4D6D6805F4DC
:1019B0006051C90A3E4D6B5C4568DD40C560354DE0
:1019C0006D6805F44041890B3A4D6B5CC568B5FB09
:1019D000F3F5056130BD29B12E4A526902432D4B02
:1019E0005A6104E02B4A526982432A4B5A6170477C
:1019F00029B1284A92690243264B9A6104E0254A9C
:101A000092698243234B9A61704729B1214AD26976
:101A10000243204BDA6104E01E4AD26982431D4B27
:101A2000DA61704729B11B4AD2680243194BDA6068
:101A300004E0184AD2688243164BDA60704729B135
:101A4000144A12690243134B1A6104E0114A1269E5
:101A50008243104B1A617047124940390860704741
:101A60000F49C86470470B49C87170470948406AFC
:101A700040F0807007494862704701460020054ADF
:101A800092680A400AB1012000E000207047014935
:101A900088727047001002400000FFF8FFFFF6FE5A
:101AA000000042428004424200127A0000093D00D8
:101AB000300000204000002010B50446FB4884425E
:101AC00009D101218803FFF7ADFF00214FF48040C9
:101AD000FFF7A8FF32E0F648844209D1012148040B
:101AE000FFF7ADFF00214FF40030FFF7A8FF25E01E
:101AF000F048844209D101218804FFF7A0FF0021AA
:101B00004FF48020FFF79BFF18E0EB48844209D197
:101B10000121C804FFF793FF00214FF40020FFF7D5
:101B20008EFF0BE0E548844208D101210805FFF74C
:101B300086FF00214FF48010FFF781FF10BD2DE9D3
:101B4000F04786B005460E460024A24600BFA146D7
:101B50000027B08900B100BF2F462C8A4CF6FF70D9
:101B60000440F08804432C82AC894EF6F310044004
:101B7000B08831890843718908430443AC81AC8A39
:101B80004FF6FF400440B0890443AC8201A8FFF740
:101B9000C2FEC648874202D1DDF810A001E0DDF8A0
:101BA0000CA0A88900F4004040B10AEBCA0000EB89
:101BB0000A1031684900B0FBF1F807E00AEBCA00EF
:101BC00000EB0A1031688900B0FBF1F86420B8FB23
:101BD000F0F004012009642101FB1089A88900F4B8
:101BE000004040B1322000EBC900B0FBF1F000F042
:101BF0000700044308E0322000EB09106421B0FB29
:101C0000F1F000F00F0004432C8106B0BDE8F0872E
:101C10004FF41651016000218180C18001810C21A7
:101C2000418100218181704710B502460020108A51
:101C30004FF2FF0318400B884C8823438C882343C2
:101C4000CC8823431843108210BD002101804180BD
:101C50008180C180704721B1828942F40052828123
:101C600004E082894DF6FF731A4082817047F0B517
:101C70000346002400260025002040F66A17B942DA
:101C800000D100BF1846C1F3421401F01F0601271E
:101C900007FA06F5012C01D10C3004E0022C01D129
:101CA000103000E014301AB107682F43076002E0DB
:101CB0000768AF430760F0BD1AB1838A0B43838284
:101CC00002E0838A8B4383827047028A4FF6F07367
:101CD0001A400282028A0A430282704782894FF2C6
:101CE000FF731A40828182890A438281704721B141
:101CF000828942F00202828104E082894FF6FD73FC
:101D00001A4082817047028A4FF6DF731A400282BE
:101D1000028A0A430282704721B1028A42F4804259
:101D2000028204E0028A4BF6FF731A400282704777
:101D3000C1F308028280704701468888C0F308001A
:101D40007047818941F0010181817047028BD2B2D5
:101D50000283028B42EA012202837047028B02F463
:101D60007F420283028B0A430283704721B1828A39
:101D700042F02002828204E0828A4FF6DF731A402A
:101D80008282704721B1828A42F01002828204E08E
:101D9000828A4FF6EF731A408282704721B1828A9D
:101DA00042F00802828204E0828A4FF6F7731A40FA
:101DB0008282704721B1828942F40042828103E02D
:101DC0008289C2F30E028281704721B1828A42F475
:101DD0000062828204E0828A4FF2FF731A4082829C
:101DE0007047828A4FF6FB731A408282828A0A43C6
:101DF0008282704721B1828A42F00202828204E02C
:101E0000828A4FF6FD731A40828270470246002094
:101E1000B1F5007F00D100BF13880B400BB101204A
:101E200000E00020704701F40072B2F5007F00D19D
:101E300000BFCA430280704770B5024600240023E9
:101E40000025002040F66A16B14200D100BFC1F360
:101E5000421501F01F03012606FA03F3012D02D1FA
:101E60009689334006E0022D02D1168A334001E004
:101E7000968A33400C12012606FA04F41688344080
:101E800013B10CB1012000E0002070BD10B500229C
:101E9000002340F66A14A14200D100BF0A120124B7
:101EA0009440A3B2DC43048010BD00000038014020
:101EB0000044004000480040004C004000500040FA
:101EC00010B50446FE48844208D10121C014FFF732
:101ED000A9FD0021E014FFF7A5FDC4E0B4F1804F97
:101EE00008D101210846FFF7AAFD00210120FFF7D4
:101EF000A6FDB8E0F348844208D101210220FFF793
:101F00009EFD00210220FFF79AFDACE0EE488442DE
:101F100008D101210420FFF792FD00210420FFF7E2
:101F20008EFDA0E0E948844208D101210820FFF796
:101F300086FD00210820FFF782FD94E0E4488442FA
:101F400008D101211020FFF77AFD00211020FFF7B2
:101F500076FD88E0DF48844208D101212020FFF788
:101F60006EFD00212020FFF76AFD7CE0DA48844204
:101F700008D101214014FFF755FD00216014FFF73F
:101F800051FD70E0D548844209D10121C804FFF712
:101F900049FD00214FF40020FFF744FD63E0D048E5
:101FA000844209D101210805FFF73CFD00214FF4CF
:101FB0008010FFF737FD56E0CA48844209D101215D
:101FC0004805FFF72FFD00214FF40010FFF72AFD11
:101FD00049E0C548844208D101214020FFF72FFD88
:101FE00000214020FFF72BFD3DE0C048844208D18E
:101FF00001218020FFF723FD00218020FFF71FFD36
:1020000031E0BB48844208D101218015FFF717FD5C
:102010000021A015FFF713FD25E0B648844209D141
:1020200001210804FFF7FEFC00214FF48030FFF788
:10203000F9FC18E0B048844209D101214804FFF7B7
:10204000F1FC00214FF40030FFF7ECFC0BE0AB4853
:10205000844208D101218804FFF7E4FC00214FF4F9
:102060008020FFF7DFFC10BD00220288944B9842CD
:102070000ED0994B98420BD0B0F1804F08D0914BC5
:10208000984205D0904B984202D0904B984204D190
:102090004FF68F731A404B881A438D4B984207D0E6
:1020A0008C4B984204D04FF6FF431A40CB881A431A
:1020B00002808B8883850B880385814B98420BD0E7
:1020C000854B984208D08B4B984205D08A4B98425A
:1020D00002D08A4B984201D10B7A03860123838276
:1020E000704770B5002400220023058C4FF6FE7661
:1020F00035400584028C8388048B4FF68F752C4005
:10210000B51E2C400D882C43751E2A400D892A438C
:102110004D882A436A4DA8420BD06F4DA84208D083
:10212000744DA84205D0744DA84202D0734DA84208
:1021300013D14FF6F7752A404D892A434FF6FB75A8
:102140002A408D882A434FF6FF652B404FF6FF55F6
:102150002B408D892B43CD892B4383800483CD88ED
:102160008586028470BD70B5002400220023058C92
:102170004FF6EF7635400584028C8388048B48F651
:10218000FF752C404FF6FF452C400D884FF6FF762B
:1021900006EA05252C434FF6DF752A400D8906EA2D
:1021A00005152A434D8806EA05152A43444DA842E1
:1021B00002D0494DA8421DD14FF67F752A404D8966
:1021C0004FF6FF7606EA05152A434FF6BF752A40FB
:1021D0008D8806EA05152A434FF6FF352B404FF24E
:1021E000FF752B408D8906EA85052B43CD8906EACC
:1021F00085052B4383800483CD880587028470BDC9
:1022000070B5002400220023058C4FF6FF66354090
:102210000584028C8388848B4FF68F752C404FF693
:10222000FC752C400D882C434FF6FF552A400D8934
:102230004FF6FF7606EA05252A434D8806EA05256E
:102240002A431F4DA84202D0234DA8421DD14FF270
:10225000FF752A404D894FF6FF7606EA05252A4389
:102260004FF6FF352A408D8806EA05252A434EF6AB
:10227000FF752B404DF6FF752B408D8906EA05153D
:102280002B43CD8906EA05152B4383808483CD88B3
:102290008587028470BD70B5002200230024058C60
:1022A0004EF6FF7635400584038C8488828B48F691
:1022B000FF752A404FF6FF452A400D8820E00000B8
:1022C000002C01400004004000080040000C0040C9
:1022D000001000400014004000340140004C014058
:1022E000005001400054014000180040001C004014
:1022F00000200040004001400044014000480140EF
:102300004FF6FF7606EA05252A434DF6FF752B406A
:102310000D8906EA05352B434D8806EA05352B4322
:10232000FA4DA84202D0FA4DA84208D14BF6FF75EB
:102330002C408D894FF6FF7606EA85152C43848064
:102340008283CD88A0F84050038470BD828B4FF209
:10235000FF331A408283828B4FF6FF7303EA012317
:102360001A4382837047F0B50C46154600220021BF
:102370000026078C4EF6FF7C07EA0C070784828B49
:10238000018C4FF6FF7707EA043640F6FF473A40E4
:102390004FF6FF7707EA05273A434FF6FF7707EA3C
:1023A00003373A43D94FB8420ED0D94FB8420BD079
:1023B000B0F1804F08D0D74FB84205D0D64FB842C1
:1023C00002D0D64FB84206D14DF6FF77394046F4D9
:1023D0008057394305E047F6FF57394044F48057AA
:1023E000394382830184F0BD828B4FF6F3731A4028
:1023F0008283828B0A4382837047F0B50C46154670
:10240000002200210026078C4FF6FF6C07EA0C071C
:102410000784828B018C4FF6FF7707EA04264FF67C
:102420000C773A404FF6FF7707EA03172F433A43FA
:10243000B64FB8420ED0B64FB8420BD0B0F1804F75
:1024400008D0B44FB84205D0B34FB84202D0B34F12
:10245000B84206D14FF6FF57394046F480773943EA
:1024600005E04FF2FF57394044F4807739438283C7
:102470000184F0BD028B4FF2FF331A400283028BBE
:102480004FF6FF7303EA01231A4302837047F0B546
:102490000C461546002200210026078C4FF6EF7CE3
:1024A00007EA0C070784028B018C4FF6FF7707EAD7
:1024B000041640F6FF473A404FF6FF7707EA033726
:1024C0003A434FF6FF7707EA05273A438F4FB84262
:1024D0000ED08F4FB8420BD0B0F1804F08D08D4F47
:1024E000B84205D08C4FB84202D08C4FB84206D1CA
:1024F0004FF6DF77394046F01007394305E04FF6D5
:102500005F77394044F01007394302830184F0BDFE
:10251000028B4FF6F3731A400283028B0A43028345
:102520007047F0B50C46154600220021068C4FF688
:10253000FE773E400684028B018C4FF60C763240CB
:102540007E1C06EA03162E433243704EB0420ED074
:102550006F4EB0420BD0B0F1804F08D06D4EB042FC
:1025600005D06D4EB04202D06C4EB04206D14FF64F
:10257000FD76314044F00106314305E04FF6F57633
:10258000314044F00106314302830184F0BD70B54F
:1025900005460C465D4885420ED05D4885420BD00D
:1025A000B5F1804F08D05B48854205D05A48854236
:1025B00002D05A48854200D100E000BF208850B9BF
:1025C0002389A28861882846FFF7ABFFE188284667
:1025D000FFF79EFF25E0208804280AD12389A288DE
:1025E00061882846FFF753FFE1882846FFF742FF3E
:1025F00017E0208808280AD12389A2886188284604
:10260000FFF7FBFEE1882846FFF7EEFE09E023898D
:10261000A28861882846FFF7A6FEE1882846FFF7D2
:1026200095FE70BD2DE9F04105460C4600260127B8
:10263000608808B9022600E00026A088012801D1A0
:10264000022700E001272088A0B92389A288618899
:102650002846FFF766FFE1882846FFF759FF2389E0
:102660003A4631462846FFF712FFE1882846FFF731
:1026700001FF13E02389A28861882846FFF707FF3E
:10268000E1882846FFF7F6FE23893A463146284678
:10269000FFF747FFE1882846FFF73AFFBDE8F081E2
:1026A0000A884B881A438B881A43CB881A430B89B4
:1026B0001A434B891A438B891A43A0F84420704768
:1026C0004FF6FF71818000210180C180418001723D
:1026D00070470021018041808180C180018141815A
:1026E0008181C18170470021018041800121818069
:1026F0000021C180018170470021018041808180DB
:10270000C18001814181818170470000002C01401E
:10271000003401400004004000080040000C00406C
:1027200021B1028842F00102028004E002884FF6E3
:10273000FE731A400280704731B1B0F8442042F471
:102740000042A0F8442005E0B0F84420C2F30E0295
:10275000A0F8442070471AB183890B43838102E0BB
:1027600083898B43838170478182704741EA0203EA
:10277000A0F8483070471AB183890B43838102E087
:1027800083898B438381704701894FF6F87211402A
:10279000018170470A46002101894FF68F73194065
:1027A00011430181704730B504460D462946204645
:1027B000FFF7F0FF208940F00700208130BD2DE9B0
:1027C000F04104460D4616461F46602D06D13B4695
:1027D000012231462046FFF75AFE05E03B46012222
:1027E00031462046FFF79DFE29462046FFF7D2FFDF
:1027F000208940F007002081BDE8F08130B50C460B
:1028000000210189C9B24FF6FF7505EA032515437A
:1028100025432943018130BD2DE9F04105460E468F
:1028200017469846002443463A4631462846FFF765
:10283000E5FF2C894FF6F870044044F007044FF68A
:102840008F70044044F070042C81BDE8F081F0B535
:1028500004460D4616461F463B463246294620464C
:10286000FFF7CCFF208940F480402081F0BD018536
:10287000828270470A46002101884FF68F73194003
:10288000114301807047F0B50C4615461E460021E5
:10289000002200230189028B038C4FF6F877394020
:1028A00021434FF6FC473A4040F201173A434FF6B6
:1028B000DD773B404FF6FF7707EA06172F433B4390
:1028C000018102830384F0BD0A460021018B4FF68B
:1028D0008F7319401143018370470A460021018B11
:1028E00048F6FF7319404FF6FF7303EA02231943BA
:1028F000018370470A460021818B4FF68F73194080
:102900001143818370470A460021818B48F6FF738B
:1029100019404FF6FF7303EA02231943818370477E
:1029200021B1028842F08002028004E002884FF662
:102930007F731A400280704721B1828842F00402FE
:10294000828004E082884FF6FB731A4082807047D1
:1029500021B1828842F00802828004E082884FF62A
:10296000F7731A408280704721B1828842F00102D9
:10297000828004E082884FF6FE731A40828070479E
:102980000A460021018B4FF6F7731940114301836A
:1029900070470A460021018B4FF2FF7319404FF632
:1029A000FF7303EA02231943018370470A4600219B
:1029B000818B4FF6F77319401143818370470A46A4
:1029C0000021818B4FF2FF7319404FF6FF7303EA2A
:1029D00002231943818370470A460021018B4FF679
:1029E000FB7319401143018370470A460021018B94
:1029F0004FF6FF3319404FF6FF7303EA02231943E2
:102A0000018370470A460021818B4FF6FB73194002
:102A10001143818370470A460021818B4FF6FF33B3
:102A200019404FF6FF7303EA02231943818370476D
:102A30000A460021018B4FF67F7319401143018331
:102A400070470A460021018BC1F30E014FF6FF7358
:102A500003EA02231943018370470A460021818B50
:102A60004FF67F7319401143818370470A46002156
:102A7000818BC1F30E014FF6FF7303EA0223194362
:102A8000818370470A460021018C4FF6FD7319407F
:102A90001143018470470A460021018C4FF6F773F9
:102AA00019401143018470470A460021018C4FF6FA
:102AB000DF7319404FF6FF7303EA021319430184D1
:102AC00070470A460021018C4FF67F7319404FF67C
:102AD000FF7303EA02131943018470470A46002179
:102AE000018C4FF6FF5319404FF6FF7303EA0223A0
:102AF0001943018470470A460021018C4FF2FF738D
:102B000019404FF6FF7303EA02231943018470470B
:102B10000A460021018C4DF6FF7319404FF6FF73F2
:102B200003EA023319430184704730B500230124BE
:102B30008C40A3B2048C9C430484048C02FA01F5FB
:102B4000ADB22C43048430BD30B5002304248C4046
:102B5000A3B2048C9C430484048C02FA01F5ADB248
:102B60002C43048430BD70B5034600200024184671
:102B7000183001258D40ACB21D8CA5431D8409B1D0
:102B8000082909D100EB6100056825F07005056092
:102B90000568154305600EE00D1FC5F34E0528447A
:102BA000056825F4E045056005684FF6FF7606EAFE
:102BB00002263543056070BD21B1028842F0020251
:102BC000028004E002884FF6FD731A4002807047CD
:102BD00021B1028842F00402028004E002884FF62C
:102BE000FB731A400280704721B1828842F0800254
:102BF000828004E082884FF67F731A40828070479B
:102C000002884FF6F7731A40028002880A43028056
:102C1000704782884FF68F731A40828082880A43F9
:102C20008280704702894FF6F8731A400281028948
:102C30000A430281704702894FF67F731A4002816E
:102C400002890A43028170478184704781857047F9
:102C5000818670470187704781877047A0F84010D0
:102C6000704702884FF6FF431A40028002880A43E9
:102C7000028070470146888E70470146088F704772
:102C80000146888F70470146B1F840007047014601
:102C9000888C70470146088D704702460020138AD1
:102CA0000B400BB1012000E000207047CA430282B4
:102CB000704730B50246002000230024158A05EA3B
:102CC0000103958905EA010413B10CB1012000E06C
:102CD000002030BDCA4302827047000010B5044690
:102CE000FA48844208D101214015FEF79BFE0021DD
:102CF0006015FEF797FE17E0F548844208D10121E0
:102D00000015FEF78FFE00212015FEF78BFE0BE06D
:102D1000F048844208D10121C803FEF783FE002158
:102D20004FF40040FEF77EFE10BD30B50246002095
:102D300000235068E84C20400D790C6844EA0524D3
:102D4000204350609068E54C2040D1E902542C4368
:102D50004D7944EA450420439060D06A20F4700025
:102D60000C7C641EE4B2234340EA0350D06230BDC1
:102D700000210160017141718160C1600121017414
:102D8000704721B1826842F00102826003E08268EC
:102D900022F001028260704721B1826842F48072A1
:102DA000826003E0826822F480728260704710B50E
:102DB0000023CBB21AB144681C43446002E044686B
:102DC0009C43446010BD816841F0080181607047F8
:102DD000014600208A6802F008020AB1012000E0E2
:102DE00000207047816841F004018160704701460E
:102DF00000208A6802F004020AB1012000E00020ED
:102E0000704721B1826842F4A002826003E08268C8
:102E100022F4A00282607047014600208A6802F412
:102E200080020AB1012000E00020704710B50A4678
:102E300000210023416821F46041531E41EA4331DF
:102E4000416010BD21B1426842F40062426003E07B
:102E5000426822F4006242607047F0B504460D46B5
:102E600000200021092D11DDE068A5F10A0606EB1E
:102E70004607072606FA07F18843A5F10A0606EB7E
:102E8000460603FA06F10843E0600CE0206905EB12
:102E90004507072606FA07F1884305EB450603FABE
:102EA00006F108432061072A0FDA606B561E06EB15
:102EB00086071F2606FA07F18843561E06EB86068C
:102EC00005FA06F10843606322E00D2A0FDA206B51
:102ED000D61F06EB86071F2606FA07F18843D61F82
:102EE00006EB860605FA06F10843206310E0E06A67
:102EF000A2F10D0606EB86071F2606FA07F18843A6
:102F0000A2F10D0606EB860605FA06F10843E0621B
:102F1000F0BD21B1826842F48012826003E08268D1
:102F200022F48012826070470146C86C80B27047FC
:102F300066484C300068704721B1426842F48062B4
:102F4000426003E0426822F480624260704721B12F
:102F5000426842F48052426003E0426822F48052A8
:102F6000426070470A460021816821F4E041114324
:102F70008160704721B1826842F40042826003E0C0
:102F8000826822F400428260704721B1826842F474
:102F90000212826003E0826822F4021282607047AB
:102FA000014600208A6802F400120AB1012000E004
:102FB00000207047F0B50446154600200022002688
:102FC000092911DDE068A1F10A0707EB470C072783
:102FD00007FA0CF29043A1F10A0707EB470703FA3F
:102FE00007F21043E0600CE0206901EB410C072779
:102FF00007FA0CF2904301EB410703FA07F2104382
:103000002061A06BC0F30156EF1C06F1010CA7EB89
:103010000C0707EB870C1F2707FA0CF29043EF1CF5
:1030200006F1010CA7EB0C0707EB870701FA07F283
:103030001043A063F0BD10B50A4600210023816B48
:1030400021F44011531E41EA0351816310BD08B5BC
:10305000002300930090009B0B440093009B1A6098
:1030600008BD08B5024600200090009201F128003A
:10307000009B184400900098006880B208BD0A4682
:1030800000214168164B194011434160704741626D
:10309000826270470A460021416821F01F011143F6
:1030A0004160704740B109490831096841F40001A5
:1030B000064A0832116007E004490831096821F422
:1030C0000001024A083211607047000000240140EC
:1030D00000280140003C0140FFFEF0FFFDF7F1FF3A
:1030E000FFFD3FFF0246002013680B400BB101209B
:1030F00000E000207047CA430260704770B5024686
:103100000020002300240B125568CEB205EA060405
:1031100015681D4015B10CB1012000E0002070BD04
:1031200000220A12D343036070477047704770470C
:103130007047704710B500F009F8006810BD10B571
:10314000044600F003F8046010BD0000004870471A
:103150004400002000487047440000207546FFF7F7
:10316000F9FFAE4605006946534620F00700854644
:1031700018B020B5FEF7A0F8BDE820404FF00006DB
:103180004FF000074FF000084FF0000B21F007014F
:10319000AC46ACE8C009ACE8C009ACE8C009ACE892
:1031A000C0098D4670470446AFF300802046FDF706
:1031B00006F8490050EAC12018BF04204A0D18BF84
:1031C00040F0010040F2FF72B2EB515F08BF40F0E7
:1031D0000200012808BF052070472DE9F0414F1E6D
:1031E00000EBC7010446D1E9000115461E4637F041
:1031F00006020DD02A46334600F038FC7F1E04EB51
:10320000C703D3E9002300F0B1F937F00602F1D18A
:10321000022F25D0042F13D0062F18BFBDE8F08150
:103220002A46334600F022FCD4E90A2300F09EF936
:103230002A46334600F01AFCD4E9082300F096F938
:103240002A46334600F012FCD4E9062300F08EF93A
:103250002A46334600F00AFCD4E9042300F086F93C
:103260002A46334600F002FCD4E9022300F07EF93E
:103270002A46334600F0FAFBD4E90023BDE8F041CA
:1032800000F074B9012201F02EB90000024A0020BA
:10329000110701F028B9000001FDFFFF2DE9F84FEB
:1032A00004460D4621F0004000917349814211DC33
:1032B0007249884201DC06D12CB120462946BDE87E
:1032C000F84FFFF7DFBF6E48002DCCBF6D496E4948
:1032D000BDE8F88F6D49814211DD6D498142D8BF4B
:1032E0004FF0FF366DDD20462946FFF762FF0428C8
:1032F00008BFFFF7CBFF20462946BDE8F88F654998
:10330000654F25F00045814233DD6449814219DD76
:10331000002632464FF080432046294600F026F929
:1033200080468A4601222046294601F0DCF8002228
:103330003B4600F0C1FD4246534600F0D3F9044637
:103340000D463EE001260022BA463B46204629466D
:1033500000F00CF980460F460022534620462946CD
:1033600000F0AAFD42463B4600F0BCF904460D467B
:1033700027E04B4981421BDDDFF828A1022600220D
:1033800053462046294600F071FB00223B4600F0E0
:10339000EDF880460F46002253462046294600F0AD
:1033A0008BFD42463B4600F09DF904460D4608E081
:1033B000032622462B4600203B4900F093F90446A1
:1033C0000D4622462B461046194600F04FFB8B4611
:1033D000824602460B4600F049FB07460246334848
:1033E00088460B4606217844FFF7F7FE52465B46B7
:1033F00000F03CFB82462E488B463A464346052168
:103400007844FFF7EAFE3A46434600F02FFB0246B7
:103410000B46002E504659460CDA00F0A7F822461B
:103420002B4600F023FB01B022462B46BDE8F04FAF
:1034300000F050BC00F09AF822462B4600F016FB34
:103440001C4A7A4402EBC603D3E9002300F034FDA2
:1034500022462B4600F030FD174A7A4402EBC603A1
:10346000D3E9002300F036FC009A002AB8BF81F0AF
:103470000041BDE8F88F0000000010440000F07F1C
:10348000182D4454FB21F93FFB21F9BF0000DC3F1C
:103490000000203E0000F33F0000F03F0000E63F48
:1034A000008003400000F83F0000F0BFF61100006C
:1034B000B4110000521100001A1100002DE9F04172
:1034C00006460F4600F012FC04000D4618BF01200E
:1034D000284320F00040C0F17F6000F1E040C00FC1
:1034E0000ED0301C18BF0120384320F00040C0F13E
:1034F0007F6000F1E040C00F04BF0120FFF71FFE16
:1035000020462946BDE8F08121F00042A2F1605238
:10351000B2F5801F01F0004328BFD2F17F6C0BD9B8
:103520005FEA001C43EAC20242EB507018BF7047CA
:1035300028BF20F001007047B2F5801FBCBF1846BD
:1035400070474FEA410C1CF5001F02D2084600F0FC
:103550001EBF70B500F034FB00000089FFF7F6BF16
:103560004FF00040A0F580007047000010B591EAD0
:10357000030F48BF83F0004300F1A684841A71EB67
:10358000030C05D2121943EB0C03001B61EB0C0179
:10359000DFF824E14FEA1154A4EB135C1EEA430F59
:1035A00018BF9EEA445F73D023EA0E03DCF1200EBD
:1035B00021EA045143F4801332D322FA0CFE10EBBB
:1035C0000E0023FA0CFE41EB0E01CCF1200E03FAA3
:1035D0000EFE10EB0E0051F10001B1F5801FCCF191
:1035E000200E32D201EB045112FA0EF2BDE8104067
:1035F00058BF7047401C38BF5FEA420218BF70478F
:10360000002814BF20F0010041F100014FEA4103FE
:1036100013F5001F38BF7047A1F1C04100F01EBB79
:10362000012A43EB0302ACF1200CDCF11F0E32BF88
:103630004FF0000E23FA0CF310EB030041EB0451A2
:10364000B4EB115FD0D0A1EB045101F58011490812
:103650005FEA300001EB04510ED350F1000038BF97
:1036600012FA0EFE08D1BDE81040C9E7401C38BF71
:103670005FEA4202CAD1C3E7BDE810404FEA410306
:1036800013F5001F38BF7047A1F1C04100F0E6BA42
:103690009EEA445F08D011EA5E0FBDE8104004BF07
:1036A00001F0004100207047BDE8104070B500F007
:1036B00087FA00BF64FBBE3E0000E0FF02494FF006
:1036C000000000F0DEBE00BF0000F87F491058BFC8
:1036D000C1F140415B1058BFC3F140438B42EFF34F
:1036E000008070472DE9C04130B4DFF8A0C23CEA49
:1036F000111418BF3CEA131400F0EC8081EA0305B2
:103700001CEA111444EAD57418BF1CEA131500F022
:10371000C780A4EB05044FF0004545EAC12145EA06
:10372000C32341EA505143EA525304F17F74994252
:1037300004F500344FEAC0204FEAC22208BF90428D
:1037400000F09C804FEA13650FF24016765D4FEA59
:10375000134506FB05F7C7F1807706FB07F74FEA2D
:10376000D737A7FB03687642C8F58038A7FB06CE9B
:1037700038BFA8F1010807FB08E64FF0000EA6FBD2
:10378000028CE6FB03CEDCF1000CCEF1004E38BF1C
:10379000AEF1010EA6FB0C584FF000074FF00005EC
:1037A000E6FB0E87A1FB08C6A0FB07CE16EB0E06B4
:1037B00045F10005E1FB076515F1E04E7EBFA4F57C
:1037C00080345FEA46066D4116F1800745F1000539
:1037D0004FEA17274FEA066647EA0567A6F1DE4675
:1037E000B6F1805F4FEA15251FD9384624F0010C49
:1037F00005EBC471BCF1FE6F01EB0C1102D8F0BCFB
:10380000BDE8008124425CBF01F5801E9EEAC47FB2
:1038100002D4F0BCBDE80081244238D4F0BCA1F150
:10382000C041BDE8004100F019BA4FEAD22242EA95
:1038300043524FEAD323A7FB02864FEAD02040EA47
:10384000415007FB03661EEA0E0F4FEAD12105FB2C
:10385000026658BFA6EB0056B6EB00564FEA520E72
:103860004EEAC37E18EB0E0E56EB530EBDD518EB89
:1038700002085E417F1C55F10005B6E74FF4801544
:103880004FF000074FF000064FF00008ADE7F0BC26
:103890004FF0000001F1C04101F00041BDE800819E
:1038A00011EA0C1F0CEA131500D00CE013EA0C1FF0
:1038B00000F025804FF00000F0BC81EA030101F028
:1038C0000041BDE80081F0BCBDE8004181EA030190
:1038D00000F0C4B9F0BCBDE8004170B500F070F96B
:1038E000097EFC3E00F007B881EA03014FF00000BA
:1038F00001F00041704781EA030100F0AFB9F0BC6C
:10390000BDE800414FF0000021497047FFFDFBF981
:10391000F7F5F4F2F0EEEDEBE9E8E6E4E3E1E0DE02
:10392000DDDBDAD8D7D5D4D3D1D0CFCDCCCBCAC874
:10393000C7C6C5C4C2C1C0BFBEBDBCBBBAB9B8B79B
:10394000B6B5B4B3B2B1B0AFAEADACABAAA9A8A88E
:10395000A7A6A5A4A3A3A2A1A09F9F9E9D9C9C9B5C
:103960009A99999897979695959493939291919007
:103970008F8F8E8E8D8C8C8B8B8A89898888878798
:103980008685858484838382828181800000FF070D
:103990000000F87F4FEA41034FEA5353A3F58063D9
:1039A000D3F11E03C8BFD3F1210C0CDD4FF0004250
:1039B00042EAC12242EA505232FA03FC8CEAE17C2C
:1039C000ACEBE1707047102BC4BF0020704703F5CB
:1039D000787CBCF1FF3F04D06FF0004282EA210006
:1039E000704770B500F0ECF84992248000207047D1
:1039F000F2E7000051EA030C17D41CF5801F58BFF2
:103A0000BCF5801F00F10680994218BF704708BFBF
:103A10009042704707D711F5801F58BF13F5801FDC
:103A200019D499427047894270471CF5801F08D508
:103A3000BCF5801FF7D58B4218BF704708BF824284
:103A400070474FF4001C1CEB410F38BF1CEB430FB9
:103A500001D28B42704770B500F0B2F89224490051
:103A60004FF000514FF08053FFF730BEDFF848C1F0
:103A700070B51CEA111E1EBF1CEA13159EEA0C0F3E
:103A800095EA0C0F00F06F8081EA030423EA4C13DF
:103A90004EEAD47E21EA4C1141F4801143F48013A4
:103AA000AE44A1FB024CA0FB0365AEF17F7E36194C
:103AB00055EB0C05A1FB034C4CF10003A0FB021CD1
:103AC00016EB0C06654153F10003094218BF46F09E
:103AD000010613F4007F0BD14FEA03314FEA0530A2
:103AE000340341EA155140EA16506FF003020AE030
:103AF0004FEAC3214FEAC520F40241EA555140EA9A
:103B000056506FF0020202EB2E4201EB025585EA9D
:103B1000CE710AD05FEA440C18BF24F0004450F183
:103B2000000041F1000120EAD47040F2FE7C6245C1
:103B300000D270BDA84214BF4FF080444FF0404403
:103B4000002E08BF0024BEF1806FA8BFA1F1C041C4
:103B5000BDE8704080F282804FF0000001F1C0416A
:103B600001F0004170479EEA0C0F0CEA131518BFD4
:103B700095EA0C0F06D04FF0000081EA030E0EF01C
:103B8000004170BD00F01CF88900013E00F007B84C
:103B900000F009B84FEA430C5FEA5C5C08D081EAA8
:103BA000030100F05BB84FEA410C5FEA5C5CF6D1C0
:103BB0004FF00000014970470000FF070000F87F48
:103BC0000EF1020E2EF0030E5EF8046B364205D4A1
:103BD000012A43EB030515F5001F12D8012841EB1C
:103BE000010C1CF5001F0CD80ED14FEAD17C15F545
:103BF000001F0CEB4C0C0CF1020C08BF4CEBD37CFF
:103C000004E04FF0080C01E04FEAD37C0CEB4C05CC
:103C100026FA05F606F00706B6F1040C06D20EEBFE
:103C2000860CBDE870404CF0010C6047DFE80CF0FA
:103C3000090B02024FF000414FF00000A1F50021F6
:103C400070BD19461046012851EB010418BFD4F588
:103C5000001484BF002001F0004170BD0808A0F5E9
:103C600000114FEA3101704753EA010C17D41CF5DB
:103C7000801F58BFBCF5801F00F106808B4218BF23
:103C8000704708BF8242704707D713F5801F58BF9F
:103C900011F5801F19D48B4270479B4270471CF569
:103CA000801F08D5BCF5801FF7D5994218BF704713
:103CB00008BF904270474FF4001C1CEB430F38BF05
:103CC0001CEB410F01D2994270470FB40CBC03BCEE
:103CD000FFF7C1BE91EA030F10B581F000413FF537
:103CE0004DAC83F0004300F0EFB800002DE9F04147
:103CF00001F5801CBCF5001FC0F2C3804FEA115CC7
:103D000021EA0C510CF1FD0C41F480115FEA5C0CCE
:103D10000CF5C07C01D3400049413DA4890241EA31
:103D2000905187028E0E0A0CA45D04FB04F602FB80
:103D300006F6C6F14046A4FB0662F60D46EA4226A8
:103D400006FB06F4A4FB01235242C3F1404338BFF3
:103D50005B1EA6FB02420024E6FB0324D20B42EAD0
:103D60004446A6FB0623A1FB02E2A3FB07E4A4183A
:103D70004FF0000252F10002E3FB01426442C2F143
:103D8000404E38BFAEF1010EA6FB04234FF00002F7
:103D9000E6FB0E32A2FB03464FF00004B61954F1C5
:103DA0000004E2FB0264A1FB06E6A4FB07E816EBB5
:103DB00008064FF0000858F10008E4FB016876425D
:103DC000C8F1405838BFA8F10108A2FB06E4A3FBE4
:103DD00008E52D194FF0000454F10004E2FB0854EB
:103DE000A1FB05E6A7FB04E818EB06084FF0000668
:103DF00056F10006E1FB048618F1200556F1000695
:103E0000A809A8F11B08B10908F03F08B8F10A0F8A
:103E100040EA86601CD901EB0C51BDE8F08100BF7F
:103E2000FCF5EEE8E2DDD8D3CFCBC7C3C0BDB9B651
:103E3000B4B1AEACA9A7A5A3A19F9D9B9A98969556
:103E40009392908F8D8C8B898887868584838281DD
:103E5000A0FB006800FB01F208EB4208B8EB8728E2
:103E600007D5341858EB0104D5D5401C51F1000199
:103E7000D1E7341A78EB0104CDD4401E71F1000172
:103E8000C9E75FEA4C0C5FEA9C5C0DD105D34FF0AB
:103E9000000001F00041BDE8F081BDE8F04170B5DF
:103EA000FFF78EFE6DDBFFBEBDE8F0414FF0000076
:103EB000004970470000F87F10B591EA030F48BF32
:103EC00083F000433FF55AAB841A71EB030C07D221
:103ED00012198CF0004C43EB0C03001B61EB0C013E
:103EE000DFF8A4E14FEA1154A4EB135C1EEA430F80
:103EF00018BF9EEA445F00F0B08023EA6E0352428E
:103F000021EA0451C3EB6E0338BF5B1EDCF1200EC7
:103F100025D322FA0CFE10EB0E0043FA0CFE41EB07
:103F20000E01CCF1200E03FA0EFE10EB0E0051F143
:103F30000001CCF1200E29D412FA0EF201EB04514B
:103F4000BDE8104058BF7047401C1CBFB2F1004F85
:103F5000704700280CBF491C20F00100704712EB8D
:103F6000020E43EB030218BF4FF0010E4EEA42026D
:103F7000ACF1200CDCF11E0E54D943FA0CFE10EB10
:103F80000E0051F1FF31CCF11E0ED5D50EF1010E10
:103F900012FA0EFE404141EB010101EB445C5FEA85
:103FA0005C5C10D910EBDE7001EB045138BFBEF140
:103FB000004FBDE8104018BF704700280CBF491CD7
:103FC00020F00100704730D24FEAD42C11F50011D7
:103FD00024F400641BD0B1FA81F20B3AA41AA41E97
:103FE000D2F12003914030FA03F31943904001EBE2
:103FF000CC71002C01EB0451BDE81040A8BF704704
:1040000001F1C0414FF0000001F000417047B0FAEB
:1040100080F310FA03F100D110BDE41A173C4805F3
:10402000C90AE4E701EB045110BD491001EB04514A
:10403000BDE810404FEA300002E04FF00001704749
:104040004A0008BF0042F8D0B2F5001F28BF7047F1
:1040500001F000414FF0000070479EEA445F07D036
:1040600011EA5E0FBDE8104004BF00210020704738
:10407000BDE8104070B5FFF7A3FD00BF40DFF63E7E
:1040800083F00041104670470000E0FF43004FEA14
:10409000D30C4FEA3C0C43401FBF40070CF160516A
:1040A00013F0FE4F70471CF0006F03D100200CF09E
:1040B000004170470CF0004343EA507010B540EAED
:1040C000CC0000F01EF900BF000000924FEA000192
:1040D000FFF7C4BD4FF000414FF00000A1F50021F3
:1040E0007047000090EA010F48BF81F0004100F1E5
:1040F0005A81421A3CBF801A89184FEAD0524FF0B9
:104100007F4C1CEA410FA2EBD15318BF9CEA026F0F
:1041100000F03B804FF0004C4CEA00204CEA0121BB
:1041200021FA03FC10EB0C0C1ED202F1FF325FEA05
:104130001C2040EBC25038BF70471CF07F0F4FEA85
:10414000400C18BFBCF17F4F38BF7047C3F120034C
:10415000994008BF20F00100BCF17F4F38BF704785
:10416000A0F1C04000F013B94FEA3C00000A40EB58
:10417000C25028BF1CF0FF0F4FEA400CE6D018BF1A
:10418000BCF17F4F38BF7047EAE79CEA026F05D069
:1041900010EA5C0F08BF00F00040704710B500F057
:1041A000B0F800BF64FBBE3E10F0004148BF404283
:1041B000B0FA80F310FA03F2C3F19D030BD051EA79
:1041C000C35101EB1220530638BF704700F10100C4
:1041D00008BF20F001007047B0FA80F310FA03F234
:1041E000C3F19D030AD0D90501EB1220530638BF55
:1041F000704700F1010008BF20F001007047000087
:104200004FF47F0C1CEAD0121EBF1CEAD11392EAB5
:104210000C0F93EA0C0F00F0478090EA010F48BFA3
:1042200042F480724FF0004C4CEA00204CEA01212D
:1042300002EB0302A0FB0113A2F50002002918BF44
:1042400043F001035B0028BF4FEA330342EB2242F5
:104250005FEA132C4CEBC2502EBFBCEB436FB2F5A0
:104260007C0F70474FEA036CBCF1004F08BF20F091
:104270000100B2F57C0F38BF70470BD582F0FF020A
:1042800012F5803FC8BF704700F1C040D8BF00F0B2
:104290000040704700F5000C5FEA4C0C48BF7047C7
:1042A000B0F1C04000F073B890EA010F0CEAD113EE
:1042B00048BF42F48072624538BF634504D280EA49
:1042C000010000F00040704710B500F01AF800BF80
:1042D0008900013E00F007B800F009B85FEA410C20
:1042E0005FEA1C6C08D080EA010000F050B85FEA79
:1042F000400C5FEA1C6CF6D14FF00040A0F5800046
:1043000070470EF1020E2EF0030E5EF8044B2442AD
:1043100004D44FEA4102B2F17F4F11D84FEA400373
:10432000B3F17F4F0CD80ED14FEAD07CB2F17F4F62
:104330000CEB4C0C0CF1020C08BF4CEBD17C04E0F4
:104340004FF0080C01E04FEAD17C0CEB4C0324FA4F
:1043500003F404F00704B4F1040C06D20EEB840C51
:10436000BDE810404CF0010C6047DFE80CF0070896
:1043700002024FF00040A0F5800010BD0846420048
:1043800018BFD2F1807288BF00F0004010BDFF213D
:1043900041EAD050C005704790EA010F48BF81F054
:1043A00000413FF5A6AE421A04D882F00042A0EBCD
:1043B000020011444FEAD0524FF07F4C1CEA410FEB
:1043C000A2EBD15318BF9CEA026F4AD04FF0004CC9
:1043D0004CEA00204CEA012121FA03FCB0EB0C0C62
:1043E0000FD412F0FE0F36D05FEA4C001DD500123C
:1043F00040EBC25038BF70471CF03F0F18BF7047EA
:104400000BE0A2F101025FEA1C2040EBC25038BF72
:1044100070471CF07F0F18BF7047C3F1200399400D
:1044200014BF401E20F00100704780084FEA12239D
:1044300008BF7047B0FA80FCA2EB0C02CCF1280C4C
:1044400060FA0CF093EA122F04BF00EBC2507047E1
:104450004FEAC3707047130A5FEADC1008BF704769
:10446000F6E79CEA026F04D010EA5C0F08BF002058
:10447000704710B5FFF745FF40DFF63E81F0004082
:1044800070470CF00F03092B08BF082000F059807B
:104490000A2B0BD0082B18BF704708BF1CF0400F29
:1044A0000AD04FF000004FF0000170471CF0400FA1
:1044B00018BF4FF0004070471CF0100F08D020F0DC
:1044C000704300F07F4242EAD3014FEA43707047E5
:1044D00000F0604021F07F4242EA000201F07F409C
:1044E00040EA727070474FF0FF0C4CF4E06C1CEA2D
:1044F00011531CBF9CEA030C9445C2BFDA4201EB86
:1045000002517047002B0DD0BCF1000F0FD0002AD4
:1045100001F00041A4BF41F0E04141F07F614FF064
:104520000000704701F000414FF00000704750EA72
:1045300001334FF09B0C18BF4CF0806C7FF4BEA889
:1045400070471CF4801F11D01CF4E02F03D06FEAD9
:10455000CC31490070474FF04050EFF3008222F019
:10456000704242EA000282F3008870474FF0000078
:1045700070470000000000004FBB610567ACDD3FE5
:10458000182D4454FB21E93F9BF681D20B73EF3F7A
:10459000182D4454FB21F93FE2652F227F2B7A3CF2
:1045A000075C143326A6813CBDCBF07A8807703CAB
:1045B000075C143326A6913CC4EB98999999C9BF1E
:1045C000711623FEC671BCBF6D9A74AFF2B0B3BF53
:1045D0009AFDDE522DDEADBF2F6C6A2C44B4A2BF13
:1045E0000D5555555555D53FFF8300922449C23F7F
:1045F0006E204CC5CD45B73F513DD0A0660DB13FB3
:10460000EB0D76244B7BA93F11DA22E33AAD903FC4
:104610003046000800000020440000006C01000843
:104620007446000844000020640600008801000869
:104630000000000000A24A0400000000000000008A
:104640000102030406070809000000000000000042
:10465000000000000000000000000000000000005A
:104660000000000001020304010203040607080918
:044670000204060832
:0400000508000131BD
:00000001FF
